{
  "_format": "hh-sol-artifact-1",
  "contractName": "MyERC1155",
  "sourceName": "contracts/ERC1155.sol",
  "abi": [
    {
      "inputs": [],
      "stateMutability": "nonpayable",
      "type": "constructor"
    },
    {
      "anonymous": false,
      "inputs": [
        {
          "indexed": true,
          "internalType": "address",
          "name": "account",
          "type": "address"
        },
        {
          "indexed": true,
          "internalType": "address",
          "name": "operator",
          "type": "address"
        },
        {
          "indexed": false,
          "internalType": "bool",
          "name": "approved",
          "type": "bool"
        }
      ],
      "name": "ApprovalForAll",
      "type": "event"
    },
    {
      "anonymous": false,
      "inputs": [
        {
          "indexed": false,
          "internalType": "uint8",
          "name": "version",
          "type": "uint8"
        }
      ],
      "name": "Initialized",
      "type": "event"
    },
    {
      "anonymous": false,
      "inputs": [
        {
          "indexed": false,
          "internalType": "address",
          "name": "account",
          "type": "address"
        }
      ],
      "name": "Paused",
      "type": "event"
    },
    {
      "anonymous": false,
      "inputs": [
        {
          "indexed": true,
          "internalType": "bytes32",
          "name": "role",
          "type": "bytes32"
        },
        {
          "indexed": true,
          "internalType": "bytes32",
          "name": "previousAdminRole",
          "type": "bytes32"
        },
        {
          "indexed": true,
          "internalType": "bytes32",
          "name": "newAdminRole",
          "type": "bytes32"
        }
      ],
      "name": "RoleAdminChanged",
      "type": "event"
    },
    {
      "anonymous": false,
      "inputs": [
        {
          "indexed": true,
          "internalType": "bytes32",
          "name": "role",
          "type": "bytes32"
        },
        {
          "indexed": true,
          "internalType": "address",
          "name": "account",
          "type": "address"
        },
        {
          "indexed": true,
          "internalType": "address",
          "name": "sender",
          "type": "address"
        }
      ],
      "name": "RoleGranted",
      "type": "event"
    },
    {
      "anonymous": false,
      "inputs": [
        {
          "indexed": true,
          "internalType": "bytes32",
          "name": "role",
          "type": "bytes32"
        },
        {
          "indexed": true,
          "internalType": "address",
          "name": "account",
          "type": "address"
        },
        {
          "indexed": true,
          "internalType": "address",
          "name": "sender",
          "type": "address"
        }
      ],
      "name": "RoleRevoked",
      "type": "event"
    },
    {
      "anonymous": false,
      "inputs": [
        {
          "indexed": true,
          "internalType": "address",
          "name": "operator",
          "type": "address"
        },
        {
          "indexed": true,
          "internalType": "address",
          "name": "from",
          "type": "address"
        },
        {
          "indexed": true,
          "internalType": "address",
          "name": "to",
          "type": "address"
        },
        {
          "indexed": false,
          "internalType": "uint256[]",
          "name": "ids",
          "type": "uint256[]"
        },
        {
          "indexed": false,
          "internalType": "uint256[]",
          "name": "values",
          "type": "uint256[]"
        }
      ],
      "name": "TransferBatch",
      "type": "event"
    },
    {
      "anonymous": false,
      "inputs": [
        {
          "indexed": true,
          "internalType": "address",
          "name": "operator",
          "type": "address"
        },
        {
          "indexed": true,
          "internalType": "address",
          "name": "from",
          "type": "address"
        },
        {
          "indexed": true,
          "internalType": "address",
          "name": "to",
          "type": "address"
        },
        {
          "indexed": false,
          "internalType": "uint256",
          "name": "id",
          "type": "uint256"
        },
        {
          "indexed": false,
          "internalType": "uint256",
          "name": "value",
          "type": "uint256"
        }
      ],
      "name": "TransferSingle",
      "type": "event"
    },
    {
      "anonymous": false,
      "inputs": [
        {
          "indexed": false,
          "internalType": "string",
          "name": "value",
          "type": "string"
        },
        {
          "indexed": true,
          "internalType": "uint256",
          "name": "id",
          "type": "uint256"
        }
      ],
      "name": "URI",
      "type": "event"
    },
    {
      "anonymous": false,
      "inputs": [
        {
          "indexed": false,
          "internalType": "address",
          "name": "account",
          "type": "address"
        }
      ],
      "name": "Unpaused",
      "type": "event"
    },
    {
      "inputs": [],
      "name": "DEFAULT_ADMIN_ROLE",
      "outputs": [
        {
          "internalType": "bytes32",
          "name": "",
          "type": "bytes32"
        }
      ],
      "stateMutability": "view",
      "type": "function"
    },
    {
      "inputs": [],
      "name": "MINTER_ROLE",
      "outputs": [
        {
          "internalType": "bytes32",
          "name": "",
          "type": "bytes32"
        }
      ],
      "stateMutability": "view",
      "type": "function"
    },
    {
      "inputs": [],
      "name": "PAUSER_ROLE",
      "outputs": [
        {
          "internalType": "bytes32",
          "name": "",
          "type": "bytes32"
        }
      ],
      "stateMutability": "view",
      "type": "function"
    },
    {
      "inputs": [],
      "name": "URI_SETTER_ROLE",
      "outputs": [
        {
          "internalType": "bytes32",
          "name": "",
          "type": "bytes32"
        }
      ],
      "stateMutability": "view",
      "type": "function"
    },
    {
      "inputs": [
        {
          "internalType": "address",
          "name": "account",
          "type": "address"
        },
        {
          "internalType": "uint256",
          "name": "id",
          "type": "uint256"
        }
      ],
      "name": "balanceOf",
      "outputs": [
        {
          "internalType": "uint256",
          "name": "",
          "type": "uint256"
        }
      ],
      "stateMutability": "view",
      "type": "function"
    },
    {
      "inputs": [
        {
          "internalType": "address[]",
          "name": "accounts",
          "type": "address[]"
        },
        {
          "internalType": "uint256[]",
          "name": "ids",
          "type": "uint256[]"
        }
      ],
      "name": "balanceOfBatch",
      "outputs": [
        {
          "internalType": "uint256[]",
          "name": "",
          "type": "uint256[]"
        }
      ],
      "stateMutability": "view",
      "type": "function"
    },
    {
      "inputs": [
        {
          "internalType": "address",
          "name": "account",
          "type": "address"
        },
        {
          "internalType": "uint256",
          "name": "id",
          "type": "uint256"
        },
        {
          "internalType": "uint256",
          "name": "value",
          "type": "uint256"
        }
      ],
      "name": "burn",
      "outputs": [],
      "stateMutability": "nonpayable",
      "type": "function"
    },
    {
      "inputs": [
        {
          "internalType": "address",
          "name": "account",
          "type": "address"
        },
        {
          "internalType": "uint256[]",
          "name": "ids",
          "type": "uint256[]"
        },
        {
          "internalType": "uint256[]",
          "name": "values",
          "type": "uint256[]"
        }
      ],
      "name": "burnBatch",
      "outputs": [],
      "stateMutability": "nonpayable",
      "type": "function"
    },
    {
      "inputs": [
        {
          "internalType": "uint256",
          "name": "id",
          "type": "uint256"
        }
      ],
      "name": "exists",
      "outputs": [
        {
          "internalType": "bool",
          "name": "",
          "type": "bool"
        }
      ],
      "stateMutability": "view",
      "type": "function"
    },
    {
      "inputs": [
        {
          "internalType": "bytes32",
          "name": "role",
          "type": "bytes32"
        }
      ],
      "name": "getRoleAdmin",
      "outputs": [
        {
          "internalType": "bytes32",
          "name": "",
          "type": "bytes32"
        }
      ],
      "stateMutability": "view",
      "type": "function"
    },
    {
      "inputs": [
        {
          "internalType": "bytes32",
          "name": "role",
          "type": "bytes32"
        },
        {
          "internalType": "address",
          "name": "account",
          "type": "address"
        }
      ],
      "name": "grantRole",
      "outputs": [],
      "stateMutability": "nonpayable",
      "type": "function"
    },
    {
      "inputs": [
        {
          "internalType": "bytes32",
          "name": "role",
          "type": "bytes32"
        },
        {
          "internalType": "address",
          "name": "account",
          "type": "address"
        }
      ],
      "name": "hasRole",
      "outputs": [
        {
          "internalType": "bool",
          "name": "",
          "type": "bool"
        }
      ],
      "stateMutability": "view",
      "type": "function"
    },
    {
      "inputs": [],
      "name": "initialize",
      "outputs": [],
      "stateMutability": "nonpayable",
      "type": "function"
    },
    {
      "inputs": [
        {
          "internalType": "address",
          "name": "account",
          "type": "address"
        },
        {
          "internalType": "address",
          "name": "operator",
          "type": "address"
        }
      ],
      "name": "isApprovedForAll",
      "outputs": [
        {
          "internalType": "bool",
          "name": "",
          "type": "bool"
        }
      ],
      "stateMutability": "view",
      "type": "function"
    },
    {
      "inputs": [
        {
          "internalType": "address",
          "name": "account",
          "type": "address"
        },
        {
          "internalType": "uint256",
          "name": "id",
          "type": "uint256"
        },
        {
          "internalType": "uint256",
          "name": "amount",
          "type": "uint256"
        },
        {
          "internalType": "bytes",
          "name": "data",
          "type": "bytes"
        }
      ],
      "name": "mint",
      "outputs": [],
      "stateMutability": "nonpayable",
      "type": "function"
    },
    {
      "inputs": [
        {
          "internalType": "address",
          "name": "to",
          "type": "address"
        },
        {
          "internalType": "uint256[]",
          "name": "ids",
          "type": "uint256[]"
        },
        {
          "internalType": "uint256[]",
          "name": "amounts",
          "type": "uint256[]"
        },
        {
          "internalType": "bytes",
          "name": "data",
          "type": "bytes"
        }
      ],
      "name": "mintBatch",
      "outputs": [],
      "stateMutability": "nonpayable",
      "type": "function"
    },
    {
      "inputs": [],
      "name": "pause",
      "outputs": [],
      "stateMutability": "nonpayable",
      "type": "function"
    },
    {
      "inputs": [],
      "name": "paused",
      "outputs": [
        {
          "internalType": "bool",
          "name": "",
          "type": "bool"
        }
      ],
      "stateMutability": "view",
      "type": "function"
    },
    {
      "inputs": [
        {
          "internalType": "bytes32",
          "name": "role",
          "type": "bytes32"
        },
        {
          "internalType": "address",
          "name": "account",
          "type": "address"
        }
      ],
      "name": "renounceRole",
      "outputs": [],
      "stateMutability": "nonpayable",
      "type": "function"
    },
    {
      "inputs": [
        {
          "internalType": "bytes32",
          "name": "role",
          "type": "bytes32"
        },
        {
          "internalType": "address",
          "name": "account",
          "type": "address"
        }
      ],
      "name": "revokeRole",
      "outputs": [],
      "stateMutability": "nonpayable",
      "type": "function"
    },
    {
      "inputs": [
        {
          "internalType": "address",
          "name": "from",
          "type": "address"
        },
        {
          "internalType": "address",
          "name": "to",
          "type": "address"
        },
        {
          "internalType": "uint256[]",
          "name": "ids",
          "type": "uint256[]"
        },
        {
          "internalType": "uint256[]",
          "name": "amounts",
          "type": "uint256[]"
        },
        {
          "internalType": "bytes",
          "name": "data",
          "type": "bytes"
        }
      ],
      "name": "safeBatchTransferFrom",
      "outputs": [],
      "stateMutability": "nonpayable",
      "type": "function"
    },
    {
      "inputs": [
        {
          "internalType": "address",
          "name": "from",
          "type": "address"
        },
        {
          "internalType": "address",
          "name": "to",
          "type": "address"
        },
        {
          "internalType": "uint256",
          "name": "id",
          "type": "uint256"
        },
        {
          "internalType": "uint256",
          "name": "amount",
          "type": "uint256"
        },
        {
          "internalType": "bytes",
          "name": "data",
          "type": "bytes"
        }
      ],
      "name": "safeTransferFrom",
      "outputs": [],
      "stateMutability": "nonpayable",
      "type": "function"
    },
    {
      "inputs": [
        {
          "internalType": "address",
          "name": "operator",
          "type": "address"
        },
        {
          "internalType": "bool",
          "name": "approved",
          "type": "bool"
        }
      ],
      "name": "setApprovalForAll",
      "outputs": [],
      "stateMutability": "nonpayable",
      "type": "function"
    },
    {
      "inputs": [
        {
          "internalType": "string",
          "name": "newuri",
          "type": "string"
        }
      ],
      "name": "setURI",
      "outputs": [],
      "stateMutability": "nonpayable",
      "type": "function"
    },
    {
      "inputs": [
        {
          "internalType": "bytes4",
          "name": "interfaceId",
          "type": "bytes4"
        }
      ],
      "name": "supportsInterface",
      "outputs": [
        {
          "internalType": "bool",
          "name": "",
          "type": "bool"
        }
      ],
      "stateMutability": "view",
      "type": "function"
    },
    {
      "inputs": [
        {
          "internalType": "uint256",
          "name": "id",
          "type": "uint256"
        }
      ],
      "name": "totalSupply",
      "outputs": [
        {
          "internalType": "uint256",
          "name": "",
          "type": "uint256"
        }
      ],
      "stateMutability": "view",
      "type": "function"
    },
    {
      "inputs": [],
      "name": "unpause",
      "outputs": [],
      "stateMutability": "nonpayable",
      "type": "function"
    },
    {
      "inputs": [
        {
          "internalType": "uint256",
          "name": "",
          "type": "uint256"
        }
      ],
      "name": "uri",
      "outputs": [
        {
          "internalType": "string",
          "name": "",
          "type": "string"
        }
      ],
      "stateMutability": "view",
      "type": "function"
    }
  ],
  "bytecode": "0x60806040523480156200001157600080fd5b50620000226200002860201b60201c565b620001d3565b600060019054906101000a900460ff16156200007b576040517f08c379a0000000000000000000000000000000000000000000000000000000008152600401620000729062000176565b60405180910390fd5b60ff801660008054906101000a900460ff1660ff161015620000ed5760ff6000806101000a81548160ff021916908360ff1602179055507f7f26b83ff96e1f2b6a682f133852f6798a09c465da95921460cefb384740249860ff604051620000e49190620001b6565b60405180910390a15b565b600082825260208201905092915050565b7f496e697469616c697a61626c653a20636f6e747261637420697320696e69746960008201527f616c697a696e6700000000000000000000000000000000000000000000000000602082015250565b60006200015e602783620000ef565b91506200016b8262000100565b604082019050919050565b6000602082019050818103600083015262000191816200014f565b9050919050565b600060ff82169050919050565b620001b08162000198565b82525050565b6000602082019050620001cd6000830184620001a5565b92915050565b61508480620001e36000396000f3fe608060405234801561001057600080fd5b50600436106101c35760003560e01c8063731133e9116100f9578063bd85b03911610097578063e63ab1e911610071578063e63ab1e9146104da578063e985e9c5146104f8578063f242432a14610528578063f5298aca14610544576101c3565b8063bd85b03914610470578063d5391393146104a0578063d547741f146104be576101c3565b80638456cb59116100d35780638456cb59146103fc57806391d1485414610406578063a217fddf14610436578063a22cb46514610454576101c3565b8063731133e9146103b85780637f345710146103d45780638129fc1c146103f2576101c3565b80632f2ff15d116101665780634e1273f4116101405780634e1273f41461031e5780634f558e791461034e5780635c975abb1461037e5780636b20c4541461039c576101c3565b80632f2ff15d146102dc57806336568abe146102f85780633f4ba83a14610314576101c3565b80630e89341c116101a25780630e89341c146102445780631f7fdffa14610274578063248a9ca3146102905780632eb2c2d6146102c0576101c3565b8062fdd58e146101c857806301ffc9a7146101f857806302fe530514610228575b600080fd5b6101e260048036038101906101dd91906131b3565b610560565b6040516101ef9190613202565b60405180910390f35b610212600480360381019061020d9190613275565b610629565b60405161021f91906132bd565b60405180910390f35b610242600480360381019061023d919061341e565b61063b565b005b61025e60048036038101906102599190613467565b610672565b60405161026b9190613513565b60405180910390f35b61028e6004803603810190610289919061369e565b610706565b005b6102aa60048036038101906102a5919061378f565b610743565b6040516102b791906137cb565b60405180910390f35b6102da60048036038101906102d591906137e6565b610763565b005b6102f660048036038101906102f191906138b5565b610804565b005b610312600480360381019061030d91906138b5565b610825565b005b61031c6108a8565b005b610338600480360381019061033391906139b8565b6108dd565b6040516103459190613aee565b60405180910390f35b61036860048036038101906103639190613467565b6109f6565b60405161037591906132bd565b60405180910390f35b610386610a0a565b60405161039391906132bd565b60405180910390f35b6103b660048036038101906103b19190613b10565b610a21565b005b6103d260048036038101906103cd9190613b9b565b610abe565b005b6103dc610afb565b6040516103e991906137cb565b60405180910390f35b6103fa610b1f565b005b610404610d18565b005b610420600480360381019061041b91906138b5565b610d4d565b60405161042d91906132bd565b60405180910390f35b61043e610db8565b60405161044b91906137cb565b60405180910390f35b61046e60048036038101906104699190613c4a565b610dbf565b005b61048a60048036038101906104859190613467565b610dd5565b6040516104979190613202565b60405180910390f35b6104a8610df3565b6040516104b591906137cb565b60405180910390f35b6104d860048036038101906104d391906138b5565b610e17565b005b6104e2610e38565b6040516104ef91906137cb565b60405180910390f35b610512600480360381019061050d9190613c8a565b610e5c565b60405161051f91906132bd565b60405180910390f35b610542600480360381019061053d9190613cca565b610ef0565b005b61055e60048036038101906105599190613d61565b610f91565b005b60008073ffffffffffffffffffffffffffffffffffffffff168373ffffffffffffffffffffffffffffffffffffffff16036105d0576040517f08c379a00000000000000000000000000000000000000000000000000000000081526004016105c790613e26565b60405180910390fd5b6065600083815260200190815260200160002060008473ffffffffffffffffffffffffffffffffffffffff1673ffffffffffffffffffffffffffffffffffffffff16815260200190815260200160002054905092915050565b60006106348261102e565b9050919050565b7f7804d923f43a17d325d77e781528e0793b2edd9890ab45fc64efd7b4b427744c610665816110a8565b61066e826110bc565b5050565b60606067805461068190613e75565b80601f01602080910402602001604051908101604052809291908181526020018280546106ad90613e75565b80156106fa5780601f106106cf576101008083540402835291602001916106fa565b820191906000526020600020905b8154815290600101906020018083116106dd57829003601f168201915b50505050509050919050565b7f9f2df0fed2c77648de5860a4cc508cd0818c85b8b8a1ab4ceeef8d981c8956a6610730816110a8565b61073c858585856110cf565b5050505050565b600060976000838152602001908152602001600020600101549050919050565b61076b6112fc565b73ffffffffffffffffffffffffffffffffffffffff168573ffffffffffffffffffffffffffffffffffffffff1614806107b157506107b0856107ab6112fc565b610e5c565b5b6107f0576040517f08c379a00000000000000000000000000000000000000000000000000000000081526004016107e790613f18565b60405180910390fd5b6107fd8585858585611304565b5050505050565b61080d82610743565b610816816110a8565b6108208383611628565b505050565b61082d6112fc565b73ffffffffffffffffffffffffffffffffffffffff168173ffffffffffffffffffffffffffffffffffffffff161461089a576040517f08c379a000000000000000000000000000000000000000000000000000000000815260040161089190613faa565b60405180910390fd5b6108a48282611709565b5050565b7f65d7a28e3265b37a6474929f336521b332c1681b933f6cb9f3376673440d862a6108d2816110a8565b6108da6117eb565b50565b60608151835114610923576040517f08c379a000000000000000000000000000000000000000000000000000000000815260040161091a9061403c565b60405180910390fd5b6000835167ffffffffffffffff8111156109405761093f6132f3565b5b60405190808252806020026020018201604052801561096e5781602001602082028036833780820191505090505b50905060005b84518110156109eb576109bb8582815181106109935761099261405c565b5b60200260200101518583815181106109ae576109ad61405c565b5b6020026020010151610560565b8282815181106109ce576109cd61405c565b5b602002602001018181525050806109e4906140ba565b9050610974565b508091505092915050565b600080610a0283610dd5565b119050919050565b600060c960009054906101000a900460ff16905090565b610a296112fc565b73ffffffffffffffffffffffffffffffffffffffff168373ffffffffffffffffffffffffffffffffffffffff161480610a6f5750610a6e83610a696112fc565b610e5c565b5b610aae576040517f08c379a0000000000000000000000000000000000000000000000000000000008152600401610aa590613f18565b60405180910390fd5b610ab983838361184e565b505050565b7f9f2df0fed2c77648de5860a4cc508cd0818c85b8b8a1ab4ceeef8d981c8956a6610ae8816110a8565b610af485858585611b1e565b5050505050565b7f7804d923f43a17d325d77e781528e0793b2edd9890ab45fc64efd7b4b427744c81565b60008060019054906101000a900460ff16159050808015610b505750600160008054906101000a900460ff1660ff16105b80610b7d5750610b5f30611ccf565b158015610b7c5750600160008054906101000a900460ff1660ff16145b5b610bbc576040517f08c379a0000000000000000000000000000000000000000000000000000000008152600401610bb390614174565b60405180910390fd5b60016000806101000a81548160ff021916908360ff1602179055508015610bf9576001600060016101000a81548160ff0219169083151502179055505b610c1160405180602001604052806000815250611cf2565b610c19611d4d565b610c21611d9e565b610c29611df7565b610c31611e48565b610c3e6000801b33611628565b610c687f7804d923f43a17d325d77e781528e0793b2edd9890ab45fc64efd7b4b427744c33611628565b610c927f65d7a28e3265b37a6474929f336521b332c1681b933f6cb9f3376673440d862a33611628565b610cbc7f9f2df0fed2c77648de5860a4cc508cd0818c85b8b8a1ab4ceeef8d981c8956a633611628565b8015610d155760008060016101000a81548160ff0219169083151502179055507f7f26b83ff96e1f2b6a682f133852f6798a09c465da95921460cefb38474024986001604051610d0c91906141e6565b60405180910390a15b50565b7f65d7a28e3265b37a6474929f336521b332c1681b933f6cb9f3376673440d862a610d42816110a8565b610d4a611e99565b50565b60006097600084815260200190815260200160002060000160008373ffffffffffffffffffffffffffffffffffffffff1673ffffffffffffffffffffffffffffffffffffffff16815260200190815260200160002060009054906101000a900460ff16905092915050565b6000801b81565b610dd1610dca6112fc565b8383611efc565b5050565b600061012d6000838152602001908152602001600020549050919050565b7f9f2df0fed2c77648de5860a4cc508cd0818c85b8b8a1ab4ceeef8d981c8956a681565b610e2082610743565b610e29816110a8565b610e338383611709565b505050565b7f65d7a28e3265b37a6474929f336521b332c1681b933f6cb9f3376673440d862a81565b6000606660008473ffffffffffffffffffffffffffffffffffffffff1673ffffffffffffffffffffffffffffffffffffffff16815260200190815260200160002060008373ffffffffffffffffffffffffffffffffffffffff1673ffffffffffffffffffffffffffffffffffffffff16815260200190815260200160002060009054906101000a900460ff16905092915050565b610ef86112fc565b73ffffffffffffffffffffffffffffffffffffffff168573ffffffffffffffffffffffffffffffffffffffff161480610f3e5750610f3d85610f386112fc565b610e5c565b5b610f7d576040517f08c379a0000000000000000000000000000000000000000000000000000000008152600401610f7490613f18565b60405180910390fd5b610f8a8585858585612068565b5050505050565b610f996112fc565b73ffffffffffffffffffffffffffffffffffffffff168373ffffffffffffffffffffffffffffffffffffffff161480610fdf5750610fde83610fd96112fc565b610e5c565b5b61101e576040517f08c379a000000000000000000000000000000000000000000000000000000000815260040161101590613f18565b60405180910390fd5b611029838383612306565b505050565b60007f7965db0b000000000000000000000000000000000000000000000000000000007bffffffffffffffffffffffffffffffffffffffffffffffffffffffff1916827bffffffffffffffffffffffffffffffffffffffffffffffffffffffff191614806110a157506110a08261254e565b5b9050919050565b6110b9816110b46112fc565b612630565b50565b80606790816110cb91906143a3565b5050565b600073ffffffffffffffffffffffffffffffffffffffff168473ffffffffffffffffffffffffffffffffffffffff160361113e576040517f08c379a0000000000000000000000000000000000000000000000000000000008152600401611135906144e7565b60405180910390fd5b8151835114611182576040517f08c379a000000000000000000000000000000000000000000000000000000000815260040161117990614579565b60405180910390fd5b600061118c6112fc565b905061119d816000878787876126b5565b60005b8451811015611257578381815181106111bc576111bb61405c565b5b6020026020010151606560008784815181106111db576111da61405c565b5b6020026020010151815260200190815260200160002060008873ffffffffffffffffffffffffffffffffffffffff1673ffffffffffffffffffffffffffffffffffffffff168152602001908152602001600020600082825461123d9190614599565b92505081905550808061124f906140ba565b9150506111a0565b508473ffffffffffffffffffffffffffffffffffffffff16600073ffffffffffffffffffffffffffffffffffffffff168273ffffffffffffffffffffffffffffffffffffffff167f4a39dc06d4c0dbc64b70af90fd698a233a518aa5d07e595d983b8c0526c8f7fb87876040516112cf9291906145cd565b60405180910390a46112e6816000878787876126d3565b6112f5816000878787876126db565b5050505050565b600033905090565b8151835114611348576040517f08c379a000000000000000000000000000000000000000000000000000000000815260040161133f90614579565b60405180910390fd5b600073ffffffffffffffffffffffffffffffffffffffff168473ffffffffffffffffffffffffffffffffffffffff16036113b7576040517f08c379a00000000000000000000000000000000000000000000000000000000081526004016113ae90614676565b60405180910390fd5b60006113c16112fc565b90506113d18187878787876126b5565b60005b84518110156115855760008582815181106113f2576113f161405c565b5b6020026020010151905060008583815181106114115761141061405c565b5b6020026020010151905060006065600084815260200190815260200160002060008b73ffffffffffffffffffffffffffffffffffffffff1673ffffffffffffffffffffffffffffffffffffffff168152602001908152602001600020549050818110156114b3576040517f08c379a00000000000000000000000000000000000000000000000000000000081526004016114aa90614708565b60405180910390fd5b8181036065600085815260200190815260200160002060008c73ffffffffffffffffffffffffffffffffffffffff1673ffffffffffffffffffffffffffffffffffffffff16815260200190815260200160002081905550816065600085815260200190815260200160002060008b73ffffffffffffffffffffffffffffffffffffffff1673ffffffffffffffffffffffffffffffffffffffff168152602001908152602001600020600082825461156a9190614599565b925050819055505050508061157e906140ba565b90506113d4565b508473ffffffffffffffffffffffffffffffffffffffff168673ffffffffffffffffffffffffffffffffffffffff168273ffffffffffffffffffffffffffffffffffffffff167f4a39dc06d4c0dbc64b70af90fd698a233a518aa5d07e595d983b8c0526c8f7fb87876040516115fc9291906145cd565b60405180910390a46116128187878787876126d3565b6116208187878787876126db565b505050505050565b6116328282610d4d565b6117055760016097600084815260200190815260200160002060000160008373ffffffffffffffffffffffffffffffffffffffff1673ffffffffffffffffffffffffffffffffffffffff16815260200190815260200160002060006101000a81548160ff0219169083151502179055506116aa6112fc565b73ffffffffffffffffffffffffffffffffffffffff168173ffffffffffffffffffffffffffffffffffffffff16837f2f8788117e7eff1d82e926ec794901d17c78024a50270940304540a733656f0d60405160405180910390a45b5050565b6117138282610d4d565b156117e75760006097600084815260200190815260200160002060000160008373ffffffffffffffffffffffffffffffffffffffff1673ffffffffffffffffffffffffffffffffffffffff16815260200190815260200160002060006101000a81548160ff02191690831515021790555061178c6112fc565b73ffffffffffffffffffffffffffffffffffffffff168173ffffffffffffffffffffffffffffffffffffffff16837ff6391f5c32d9c69d2a47ea670b442974b53935d1edc7fd64eb21e047a839171b60405160405180910390a45b5050565b6117f36128b2565b600060c960006101000a81548160ff0219169083151502179055507f5db9ee0a495bf2e6ff9c91a7834c1ba4fdd244a5e8aa4e537bd38aeae4b073aa6118376112fc565b6040516118449190614737565b60405180910390a1565b600073ffffffffffffffffffffffffffffffffffffffff168373ffffffffffffffffffffffffffffffffffffffff16036118bd576040517f08c379a00000000000000000000000000000000000000000000000000000000081526004016118b4906147c4565b60405180910390fd5b8051825114611901576040517f08c379a00000000000000000000000000000000000000000000000000000000081526004016118f890614579565b60405180910390fd5b600061190b6112fc565b905061192b818560008686604051806020016040528060008152506126b5565b60005b8351811015611a7a57600084828151811061194c5761194b61405c565b5b60200260200101519050600084838151811061196b5761196a61405c565b5b6020026020010151905060006065600084815260200190815260200160002060008973ffffffffffffffffffffffffffffffffffffffff1673ffffffffffffffffffffffffffffffffffffffff16815260200190815260200160002054905081811015611a0d576040517f08c379a0000000000000000000000000000000000000000000000000000000008152600401611a0490614856565b60405180910390fd5b8181036065600085815260200190815260200160002060008a73ffffffffffffffffffffffffffffffffffffffff1673ffffffffffffffffffffffffffffffffffffffff168152602001908152602001600020819055505050508080611a72906140ba565b91505061192e565b50600073ffffffffffffffffffffffffffffffffffffffff168473ffffffffffffffffffffffffffffffffffffffff168273ffffffffffffffffffffffffffffffffffffffff167f4a39dc06d4c0dbc64b70af90fd698a233a518aa5d07e595d983b8c0526c8f7fb8686604051611af29291906145cd565b60405180910390a4611b18818560008686604051806020016040528060008152506126d3565b50505050565b600073ffffffffffffffffffffffffffffffffffffffff168473ffffffffffffffffffffffffffffffffffffffff1603611b8d576040517f08c379a0000000000000000000000000000000000000000000000000000000008152600401611b84906144e7565b60405180910390fd5b6000611b976112fc565b90506000611ba4856128fb565b90506000611bb1856128fb565b9050611bc2836000898585896126b5565b846065600088815260200190815260200160002060008973ffffffffffffffffffffffffffffffffffffffff1673ffffffffffffffffffffffffffffffffffffffff1681526020019081526020016000206000828254611c229190614599565b925050819055508673ffffffffffffffffffffffffffffffffffffffff16600073ffffffffffffffffffffffffffffffffffffffff168473ffffffffffffffffffffffffffffffffffffffff167fc3d58168c5ae7397731d063d5bbf3d657854427343f4c083240f7aacaa2d0f628989604051611ca0929190614876565b60405180910390a4611cb7836000898585896126d3565b611cc683600089898989612975565b50505050505050565b6000808273ffffffffffffffffffffffffffffffffffffffff163b119050919050565b600060019054906101000a900460ff16611d41576040517f08c379a0000000000000000000000000000000000000000000000000000000008152600401611d3890614911565b60405180910390fd5b611d4a81612b4c565b50565b600060019054906101000a900460ff16611d9c576040517f08c379a0000000000000000000000000000000000000000000000000000000008152600401611d9390614911565b60405180910390fd5b565b600060019054906101000a900460ff16611ded576040517f08c379a0000000000000000000000000000000000000000000000000000000008152600401611de490614911565b60405180910390fd5b611df5612ba7565b565b600060019054906101000a900460ff16611e46576040517f08c379a0000000000000000000000000000000000000000000000000000000008152600401611e3d90614911565b60405180910390fd5b565b600060019054906101000a900460ff16611e97576040517f08c379a0000000000000000000000000000000000000000000000000000000008152600401611e8e90614911565b60405180910390fd5b565b611ea1612c13565b600160c960006101000a81548160ff0219169083151502179055507f62e78cea01bee320cd4e420270b5ea74000d11b0c9f74754ebdbfc544b05a258611ee56112fc565b604051611ef29190614737565b60405180910390a1565b8173ffffffffffffffffffffffffffffffffffffffff168373ffffffffffffffffffffffffffffffffffffffff1603611f6a576040517f08c379a0000000000000000000000000000000000000000000000000000000008152600401611f61906149a3565b60405180910390fd5b80606660008573ffffffffffffffffffffffffffffffffffffffff1673ffffffffffffffffffffffffffffffffffffffff16815260200190815260200160002060008473ffffffffffffffffffffffffffffffffffffffff1673ffffffffffffffffffffffffffffffffffffffff16815260200190815260200160002060006101000a81548160ff0219169083151502179055508173ffffffffffffffffffffffffffffffffffffffff168373ffffffffffffffffffffffffffffffffffffffff167f17307eab39ab6107e8899845ad3d59bd9653f200f220920489ca2b5937696c318360405161205b91906132bd565b60405180910390a3505050565b600073ffffffffffffffffffffffffffffffffffffffff168473ffffffffffffffffffffffffffffffffffffffff16036120d7576040517f08c379a00000000000000000000000000000000000000000000000000000000081526004016120ce90614676565b60405180910390fd5b60006120e16112fc565b905060006120ee856128fb565b905060006120fb856128fb565b905061210b8389898585896126b5565b60006065600088815260200190815260200160002060008a73ffffffffffffffffffffffffffffffffffffffff1673ffffffffffffffffffffffffffffffffffffffff168152602001908152602001600020549050858110156121a3576040517f08c379a000000000000000000000000000000000000000000000000000000000815260040161219a90614708565b60405180910390fd5b8581036065600089815260200190815260200160002060008b73ffffffffffffffffffffffffffffffffffffffff1673ffffffffffffffffffffffffffffffffffffffff16815260200190815260200160002081905550856065600089815260200190815260200160002060008a73ffffffffffffffffffffffffffffffffffffffff1673ffffffffffffffffffffffffffffffffffffffff168152602001908152602001600020600082825461225a9190614599565b925050819055508773ffffffffffffffffffffffffffffffffffffffff168973ffffffffffffffffffffffffffffffffffffffff168573ffffffffffffffffffffffffffffffffffffffff167fc3d58168c5ae7397731d063d5bbf3d657854427343f4c083240f7aacaa2d0f628a8a6040516122d7929190614876565b60405180910390a46122ed848a8a86868a6126d3565b6122fb848a8a8a8a8a612975565b505050505050505050565b600073ffffffffffffffffffffffffffffffffffffffff168373ffffffffffffffffffffffffffffffffffffffff1603612375576040517f08c379a000000000000000000000000000000000000000000000000000000000815260040161236c906147c4565b60405180910390fd5b600061237f6112fc565b9050600061238c846128fb565b90506000612399846128fb565b90506123b9838760008585604051806020016040528060008152506126b5565b60006065600087815260200190815260200160002060008873ffffffffffffffffffffffffffffffffffffffff1673ffffffffffffffffffffffffffffffffffffffff16815260200190815260200160002054905084811015612451576040517f08c379a000000000000000000000000000000000000000000000000000000000815260040161244890614856565b60405180910390fd5b8481036065600088815260200190815260200160002060008973ffffffffffffffffffffffffffffffffffffffff1673ffffffffffffffffffffffffffffffffffffffff16815260200190815260200160002081905550600073ffffffffffffffffffffffffffffffffffffffff168773ffffffffffffffffffffffffffffffffffffffff168573ffffffffffffffffffffffffffffffffffffffff167fc3d58168c5ae7397731d063d5bbf3d657854427343f4c083240f7aacaa2d0f62898960405161251f929190614876565b60405180910390a4612545848860008686604051806020016040528060008152506126d3565b50505050505050565b60007fd9b67a26000000000000000000000000000000000000000000000000000000007bffffffffffffffffffffffffffffffffffffffffffffffffffffffff1916827bffffffffffffffffffffffffffffffffffffffffffffffffffffffff1916148061261957507f0e89341c000000000000000000000000000000000000000000000000000000007bffffffffffffffffffffffffffffffffffffffffffffffffffffffff1916827bffffffffffffffffffffffffffffffffffffffffffffffffffffffff1916145b80612629575061262882612c5d565b5b9050919050565b61263a8282610d4d565b6126b15761264781612cc7565b6126558360001c6020612cf4565b604051602001612666929190614a97565b6040516020818303038152906040526040517f08c379a00000000000000000000000000000000000000000000000000000000081526004016126a89190613513565b60405180910390fd5b5050565b6126bd612c13565b6126cb868686868686612f30565b505050505050565b505050505050565b6126fa8473ffffffffffffffffffffffffffffffffffffffff16611ccf565b156128aa578373ffffffffffffffffffffffffffffffffffffffff1663bc197c8187878686866040518663ffffffff1660e01b8152600401612740959493929190614b26565b6020604051808303816000875af192505050801561277c57506040513d601f19601f820116820180604052508101906127799190614ba3565b60015b61282157612788614bdd565b806308c379a0036127e4575061279c614bff565b806127a757506127e6565b806040517f08c379a00000000000000000000000000000000000000000000000000000000081526004016127db9190613513565b60405180910390fd5b505b6040517f08c379a000000000000000000000000000000000000000000000000000000000815260040161281890614d01565b60405180910390fd5b63bc197c8160e01b7bffffffffffffffffffffffffffffffffffffffffffffffffffffffff1916817bffffffffffffffffffffffffffffffffffffffffffffffffffffffff1916146128a8576040517f08c379a000000000000000000000000000000000000000000000000000000000815260040161289f90614d93565b60405180910390fd5b505b505050505050565b6128ba610a0a565b6128f9576040517f08c379a00000000000000000000000000000000000000000000000000000000081526004016128f090614dff565b60405180910390fd5b565b60606000600167ffffffffffffffff81111561291a576129196132f3565b5b6040519080825280602002602001820160405280156129485781602001602082028036833780820191505090505b50905082816000815181106129605761295f61405c565b5b60200260200101818152505080915050919050565b6129948473ffffffffffffffffffffffffffffffffffffffff16611ccf565b15612b44578373ffffffffffffffffffffffffffffffffffffffff1663f23a6e6187878686866040518663ffffffff1660e01b81526004016129da959493929190614e1f565b6020604051808303816000875af1925050508015612a1657506040513d601f19601f82011682018060405250810190612a139190614ba3565b60015b612abb57612a22614bdd565b806308c379a003612a7e5750612a36614bff565b80612a415750612a80565b806040517f08c379a0000000000000000000000000000000000000000000000000000000008152600401612a759190613513565b60405180910390fd5b505b6040517f08c379a0000000000000000000000000000000000000000000000000000000008152600401612ab290614d01565b60405180910390fd5b63f23a6e6160e01b7bffffffffffffffffffffffffffffffffffffffffffffffffffffffff1916817bffffffffffffffffffffffffffffffffffffffffffffffffffffffff191614612b42576040517f08c379a0000000000000000000000000000000000000000000000000000000008152600401612b3990614d93565b60405180910390fd5b505b505050505050565b600060019054906101000a900460ff16612b9b576040517f08c379a0000000000000000000000000000000000000000000000000000000008152600401612b9290614911565b60405180910390fd5b612ba4816110bc565b50565b600060019054906101000a900460ff16612bf6576040517f08c379a0000000000000000000000000000000000000000000000000000000008152600401612bed90614911565b60405180910390fd5b600060c960006101000a81548160ff021916908315150217905550565b612c1b610a0a565b15612c5b576040517f08c379a0000000000000000000000000000000000000000000000000000000008152600401612c5290614ec5565b60405180910390fd5b565b60007f01ffc9a7000000000000000000000000000000000000000000000000000000007bffffffffffffffffffffffffffffffffffffffffffffffffffffffff1916827bffffffffffffffffffffffffffffffffffffffffffffffffffffffff1916149050919050565b6060612ced8273ffffffffffffffffffffffffffffffffffffffff16601460ff16612cf4565b9050919050565b606060006002836002612d079190614ee5565b612d119190614599565b67ffffffffffffffff811115612d2a57612d296132f3565b5b6040519080825280601f01601f191660200182016040528015612d5c5781602001600182028036833780820191505090505b5090507f300000000000000000000000000000000000000000000000000000000000000081600081518110612d9457612d9361405c565b5b60200101907effffffffffffffffffffffffffffffffffffffffffffffffffffffffffffff1916908160001a9053507f780000000000000000000000000000000000000000000000000000000000000081600181518110612df857612df761405c565b5b60200101907effffffffffffffffffffffffffffffffffffffffffffffffffffffffffffff1916908160001a90535060006001846002612e389190614ee5565b612e429190614599565b90505b6001811115612ee2577f3031323334353637383961626364656600000000000000000000000000000000600f861660108110612e8457612e8361405c565b5b1a60f81b828281518110612e9b57612e9a61405c565b5b60200101907effffffffffffffffffffffffffffffffffffffffffffffffffffffffffffff1916908160001a905350600485901c945080612edb90614f27565b9050612e45565b5060008414612f26576040517f08c379a0000000000000000000000000000000000000000000000000000000008152600401612f1d90614f9c565b60405180910390fd5b8091505092915050565b612f3e868686868686613103565b600073ffffffffffffffffffffffffffffffffffffffff168573ffffffffffffffffffffffffffffffffffffffff1603612ff05760005b8351811015612fee57828181518110612f9157612f9061405c565b5b602002602001015161012d6000868481518110612fb157612fb061405c565b5b602002602001015181526020019081526020016000206000828254612fd69190614599565b9250508190555080612fe7906140ba565b9050612f75565b505b600073ffffffffffffffffffffffffffffffffffffffff168473ffffffffffffffffffffffffffffffffffffffff16036130fb5760005b83518110156130f95760008482815181106130455761304461405c565b5b6020026020010151905060008483815181106130645761306361405c565b5b60200260200101519050600061012d6000848152602001908152602001600020549050818110156130ca576040517f08c379a00000000000000000000000000000000000000000000000000000000081526004016130c19061502e565b60405180910390fd5b81810361012d600085815260200190815260200160002081905550505050806130f2906140ba565b9050613027565b505b505050505050565b505050505050565b6000604051905090565b600080fd5b600080fd5b600073ffffffffffffffffffffffffffffffffffffffff82169050919050565b600061314a8261311f565b9050919050565b61315a8161313f565b811461316557600080fd5b50565b60008135905061317781613151565b92915050565b6000819050919050565b6131908161317d565b811461319b57600080fd5b50565b6000813590506131ad81613187565b92915050565b600080604083850312156131ca576131c9613115565b5b60006131d885828601613168565b92505060206131e98582860161319e565b9150509250929050565b6131fc8161317d565b82525050565b600060208201905061321760008301846131f3565b92915050565b60007fffffffff0000000000000000000000000000000000000000000000000000000082169050919050565b6132528161321d565b811461325d57600080fd5b50565b60008135905061326f81613249565b92915050565b60006020828403121561328b5761328a613115565b5b600061329984828501613260565b91505092915050565b60008115159050919050565b6132b7816132a2565b82525050565b60006020820190506132d260008301846132ae565b92915050565b600080fd5b600080fd5b6000601f19601f8301169050919050565b7f4e487b7100000000000000000000000000000000000000000000000000000000600052604160045260246000fd5b61332b826132e2565b810181811067ffffffffffffffff8211171561334a576133496132f3565b5b80604052505050565b600061335d61310b565b90506133698282613322565b919050565b600067ffffffffffffffff821115613389576133886132f3565b5b613392826132e2565b9050602081019050919050565b82818337600083830152505050565b60006133c16133bc8461336e565b613353565b9050828152602081018484840111156133dd576133dc6132dd565b5b6133e884828561339f565b509392505050565b600082601f830112613405576134046132d8565b5b81356134158482602086016133ae565b91505092915050565b60006020828403121561343457613433613115565b5b600082013567ffffffffffffffff8111156134525761345161311a565b5b61345e848285016133f0565b91505092915050565b60006020828403121561347d5761347c613115565b5b600061348b8482850161319e565b91505092915050565b600081519050919050565b600082825260208201905092915050565b60005b838110156134ce5780820151818401526020810190506134b3565b60008484015250505050565b60006134e582613494565b6134ef818561349f565b93506134ff8185602086016134b0565b613508816132e2565b840191505092915050565b6000602082019050818103600083015261352d81846134da565b905092915050565b600067ffffffffffffffff8211156135505761354f6132f3565b5b602082029050602081019050919050565b600080fd5b600061357961357484613535565b613353565b9050808382526020820190506020840283018581111561359c5761359b613561565b5b835b818110156135c557806135b1888261319e565b84526020840193505060208101905061359e565b5050509392505050565b600082601f8301126135e4576135e36132d8565b5b81356135f4848260208601613566565b91505092915050565b600067ffffffffffffffff821115613618576136176132f3565b5b613621826132e2565b9050602081019050919050565b600061364161363c846135fd565b613353565b90508281526020810184848401111561365d5761365c6132dd565b5b61366884828561339f565b509392505050565b600082601f830112613685576136846132d8565b5b813561369584826020860161362e565b91505092915050565b600080600080608085870312156136b8576136b7613115565b5b60006136c687828801613168565b945050602085013567ffffffffffffffff8111156136e7576136e661311a565b5b6136f3878288016135cf565b935050604085013567ffffffffffffffff8111156137145761371361311a565b5b613720878288016135cf565b925050606085013567ffffffffffffffff8111156137415761374061311a565b5b61374d87828801613670565b91505092959194509250565b6000819050919050565b61376c81613759565b811461377757600080fd5b50565b60008135905061378981613763565b92915050565b6000602082840312156137a5576137a4613115565b5b60006137b38482850161377a565b91505092915050565b6137c581613759565b82525050565b60006020820190506137e060008301846137bc565b92915050565b600080600080600060a0868803121561380257613801613115565b5b600061381088828901613168565b955050602061382188828901613168565b945050604086013567ffffffffffffffff8111156138425761384161311a565b5b61384e888289016135cf565b935050606086013567ffffffffffffffff81111561386f5761386e61311a565b5b61387b888289016135cf565b925050608086013567ffffffffffffffff81111561389c5761389b61311a565b5b6138a888828901613670565b9150509295509295909350565b600080604083850312156138cc576138cb613115565b5b60006138da8582860161377a565b92505060206138eb85828601613168565b9150509250929050565b600067ffffffffffffffff8211156139105761390f6132f3565b5b602082029050602081019050919050565b600061393461392f846138f5565b613353565b9050808382526020820190506020840283018581111561395757613956613561565b5b835b81811015613980578061396c8882613168565b845260208401935050602081019050613959565b5050509392505050565b600082601f83011261399f5761399e6132d8565b5b81356139af848260208601613921565b91505092915050565b600080604083850312156139cf576139ce613115565b5b600083013567ffffffffffffffff8111156139ed576139ec61311a565b5b6139f98582860161398a565b925050602083013567ffffffffffffffff811115613a1a57613a1961311a565b5b613a26858286016135cf565b9150509250929050565b600081519050919050565b600082825260208201905092915050565b6000819050602082019050919050565b613a658161317d565b82525050565b6000613a778383613a5c565b60208301905092915050565b6000602082019050919050565b6000613a9b82613a30565b613aa58185613a3b565b9350613ab083613a4c565b8060005b83811015613ae1578151613ac88882613a6b565b9750613ad383613a83565b925050600181019050613ab4565b5085935050505092915050565b60006020820190508181036000830152613b088184613a90565b905092915050565b600080600060608486031215613b2957613b28613115565b5b6000613b3786828701613168565b935050602084013567ffffffffffffffff811115613b5857613b5761311a565b5b613b64868287016135cf565b925050604084013567ffffffffffffffff811115613b8557613b8461311a565b5b613b91868287016135cf565b9150509250925092565b60008060008060808587031215613bb557613bb4613115565b5b6000613bc387828801613168565b9450506020613bd48782880161319e565b9350506040613be58782880161319e565b925050606085013567ffffffffffffffff811115613c0657613c0561311a565b5b613c1287828801613670565b91505092959194509250565b613c27816132a2565b8114613c3257600080fd5b50565b600081359050613c4481613c1e565b92915050565b60008060408385031215613c6157613c60613115565b5b6000613c6f85828601613168565b9250506020613c8085828601613c35565b9150509250929050565b60008060408385031215613ca157613ca0613115565b5b6000613caf85828601613168565b9250506020613cc085828601613168565b9150509250929050565b600080600080600060a08688031215613ce657613ce5613115565b5b6000613cf488828901613168565b9550506020613d0588828901613168565b9450506040613d168882890161319e565b9350506060613d278882890161319e565b925050608086013567ffffffffffffffff811115613d4857613d4761311a565b5b613d5488828901613670565b9150509295509295909350565b600080600060608486031215613d7a57613d79613115565b5b6000613d8886828701613168565b9350506020613d998682870161319e565b9250506040613daa8682870161319e565b9150509250925092565b7f455243313135353a2061646472657373207a65726f206973206e6f742061207660008201527f616c6964206f776e657200000000000000000000000000000000000000000000602082015250565b6000613e10602a8361349f565b9150613e1b82613db4565b604082019050919050565b60006020820190508181036000830152613e3f81613e03565b9050919050565b7f4e487b7100000000000000000000000000000000000000000000000000000000600052602260045260246000fd5b60006002820490506001821680613e8d57607f821691505b602082108103613ea057613e9f613e46565b5b50919050565b7f455243313135353a2063616c6c6572206973206e6f7420746f6b656e206f776e60008201527f6572206f7220617070726f766564000000000000000000000000000000000000602082015250565b6000613f02602e8361349f565b9150613f0d82613ea6565b604082019050919050565b60006020820190508181036000830152613f3181613ef5565b9050919050565b7f416363657373436f6e74726f6c3a2063616e206f6e6c792072656e6f756e636560008201527f20726f6c657320666f722073656c660000000000000000000000000000000000602082015250565b6000613f94602f8361349f565b9150613f9f82613f38565b604082019050919050565b60006020820190508181036000830152613fc381613f87565b9050919050565b7f455243313135353a206163636f756e747320616e6420696473206c656e67746860008201527f206d69736d617463680000000000000000000000000000000000000000000000602082015250565b600061402660298361349f565b915061403182613fca565b604082019050919050565b6000602082019050818103600083015261405581614019565b9050919050565b7f4e487b7100000000000000000000000000000000000000000000000000000000600052603260045260246000fd5b7f4e487b7100000000000000000000000000000000000000000000000000000000600052601160045260246000fd5b60006140c58261317d565b91507fffffffffffffffffffffffffffffffffffffffffffffffffffffffffffffffff82036140f7576140f661408b565b5b600182019050919050565b7f496e697469616c697a61626c653a20636f6e747261637420697320616c72656160008201527f647920696e697469616c697a6564000000000000000000000000000000000000602082015250565b600061415e602e8361349f565b915061416982614102565b604082019050919050565b6000602082019050818103600083015261418d81614151565b9050919050565b6000819050919050565b600060ff82169050919050565b6000819050919050565b60006141d06141cb6141c684614194565b6141ab565b61419e565b9050919050565b6141e0816141b5565b82525050565b60006020820190506141fb60008301846141d7565b92915050565b60008190508160005260206000209050919050565b60006020601f8301049050919050565b600082821b905092915050565b6000600883026142637fffffffffffffffffffffffffffffffffffffffffffffffffffffffffffffffff82614226565b61426d8683614226565b95508019841693508086168417925050509392505050565b60006142a061429b6142968461317d565b6141ab565b61317d565b9050919050565b6000819050919050565b6142ba83614285565b6142ce6142c6826142a7565b848454614233565b825550505050565b600090565b6142e36142d6565b6142ee8184846142b1565b505050565b5b81811015614312576143076000826142db565b6001810190506142f4565b5050565b601f8211156143575761432881614201565b61433184614216565b81016020851015614340578190505b61435461434c85614216565b8301826142f3565b50505b505050565b600082821c905092915050565b600061437a6000198460080261435c565b1980831691505092915050565b60006143938383614369565b9150826002028217905092915050565b6143ac82613494565b67ffffffffffffffff8111156143c5576143c46132f3565b5b6143cf8254613e75565b6143da828285614316565b600060209050601f83116001811461440d57600084156143fb578287015190505b6144058582614387565b86555061446d565b601f19841661441b86614201565b60005b828110156144435784890151825560018201915060208501945060208101905061441e565b86831015614460578489015161445c601f891682614369565b8355505b6001600288020188555050505b505050505050565b7f455243313135353a206d696e7420746f20746865207a65726f2061646472657360008201527f7300000000000000000000000000000000000000000000000000000000000000602082015250565b60006144d160218361349f565b91506144dc82614475565b604082019050919050565b60006020820190508181036000830152614500816144c4565b9050919050565b7f455243313135353a2069647320616e6420616d6f756e7473206c656e6774682060008201527f6d69736d61746368000000000000000000000000000000000000000000000000602082015250565b600061456360288361349f565b915061456e82614507565b604082019050919050565b6000602082019050818103600083015261459281614556565b9050919050565b60006145a48261317d565b91506145af8361317d565b92508282019050808211156145c7576145c661408b565b5b92915050565b600060408201905081810360008301526145e78185613a90565b905081810360208301526145fb8184613a90565b90509392505050565b7f455243313135353a207472616e7366657220746f20746865207a65726f20616460008201527f6472657373000000000000000000000000000000000000000000000000000000602082015250565b600061466060258361349f565b915061466b82614604565b604082019050919050565b6000602082019050818103600083015261468f81614653565b9050919050565b7f455243313135353a20696e73756666696369656e742062616c616e636520666f60008201527f72207472616e7366657200000000000000000000000000000000000000000000602082015250565b60006146f2602a8361349f565b91506146fd82614696565b604082019050919050565b60006020820190508181036000830152614721816146e5565b9050919050565b6147318161313f565b82525050565b600060208201905061474c6000830184614728565b92915050565b7f455243313135353a206275726e2066726f6d20746865207a65726f206164647260008201527f6573730000000000000000000000000000000000000000000000000000000000602082015250565b60006147ae60238361349f565b91506147b982614752565b604082019050919050565b600060208201905081810360008301526147dd816147a1565b9050919050565b7f455243313135353a206275726e20616d6f756e7420657863656564732062616c60008201527f616e636500000000000000000000000000000000000000000000000000000000602082015250565b600061484060248361349f565b915061484b826147e4565b604082019050919050565b6000602082019050818103600083015261486f81614833565b9050919050565b600060408201905061488b60008301856131f3565b61489860208301846131f3565b9392505050565b7f496e697469616c697a61626c653a20636f6e7472616374206973206e6f74206960008201527f6e697469616c697a696e67000000000000000000000000000000000000000000602082015250565b60006148fb602b8361349f565b91506149068261489f565b604082019050919050565b6000602082019050818103600083015261492a816148ee565b9050919050565b7f455243313135353a2073657474696e6720617070726f76616c2073746174757360008201527f20666f722073656c660000000000000000000000000000000000000000000000602082015250565b600061498d60298361349f565b915061499882614931565b604082019050919050565b600060208201905081810360008301526149bc81614980565b9050919050565b600081905092915050565b7f416363657373436f6e74726f6c3a206163636f756e7420000000000000000000600082015250565b6000614a046017836149c3565b9150614a0f826149ce565b601782019050919050565b6000614a2582613494565b614a2f81856149c3565b9350614a3f8185602086016134b0565b80840191505092915050565b7f206973206d697373696e6720726f6c6520000000000000000000000000000000600082015250565b6000614a816011836149c3565b9150614a8c82614a4b565b601182019050919050565b6000614aa2826149f7565b9150614aae8285614a1a565b9150614ab982614a74565b9150614ac58284614a1a565b91508190509392505050565b600081519050919050565b600082825260208201905092915050565b6000614af882614ad1565b614b028185614adc565b9350614b128185602086016134b0565b614b1b816132e2565b840191505092915050565b600060a082019050614b3b6000830188614728565b614b486020830187614728565b8181036040830152614b5a8186613a90565b90508181036060830152614b6e8185613a90565b90508181036080830152614b828184614aed565b90509695505050505050565b600081519050614b9d81613249565b92915050565b600060208284031215614bb957614bb8613115565b5b6000614bc784828501614b8e565b91505092915050565b60008160e01c9050919050565b600060033d1115614bfc5760046000803e614bf9600051614bd0565b90505b90565b600060443d10614c8c57614c1161310b565b60043d036004823e80513d602482011167ffffffffffffffff82111715614c39575050614c8c565b808201805167ffffffffffffffff811115614c575750505050614c8c565b80602083010160043d038501811115614c74575050505050614c8c565b614c8382602001850186613322565b82955050505050505b90565b7f455243313135353a207472616e7366657220746f206e6f6e2d4552433131353560008201527f526563656976657220696d706c656d656e746572000000000000000000000000602082015250565b6000614ceb60348361349f565b9150614cf682614c8f565b604082019050919050565b60006020820190508181036000830152614d1a81614cde565b9050919050565b7f455243313135353a204552433131353552656365697665722072656a6563746560008201527f6420746f6b656e73000000000000000000000000000000000000000000000000602082015250565b6000614d7d60288361349f565b9150614d8882614d21565b604082019050919050565b60006020820190508181036000830152614dac81614d70565b9050919050565b7f5061757361626c653a206e6f7420706175736564000000000000000000000000600082015250565b6000614de960148361349f565b9150614df482614db3565b602082019050919050565b60006020820190508181036000830152614e1881614ddc565b9050919050565b600060a082019050614e346000830188614728565b614e416020830187614728565b614e4e60408301866131f3565b614e5b60608301856131f3565b8181036080830152614e6d8184614aed565b90509695505050505050565b7f5061757361626c653a2070617573656400000000000000000000000000000000600082015250565b6000614eaf60108361349f565b9150614eba82614e79565b602082019050919050565b60006020820190508181036000830152614ede81614ea2565b9050919050565b6000614ef08261317d565b9150614efb8361317d565b9250828202614f098161317d565b91508282048414831517614f2057614f1f61408b565b5b5092915050565b6000614f328261317d565b915060008203614f4557614f4461408b565b5b600182039050919050565b7f537472696e67733a20686578206c656e67746820696e73756666696369656e74600082015250565b6000614f8660208361349f565b9150614f9182614f50565b602082019050919050565b60006020820190508181036000830152614fb581614f79565b9050919050565b7f455243313135353a206275726e20616d6f756e74206578636565647320746f7460008201527f616c537570706c79000000000000000000000000000000000000000000000000602082015250565b600061501860288361349f565b915061502382614fbc565b604082019050919050565b600060208201905081810360008301526150478161500b565b905091905056fea2646970667358221220b9e0997b7dd0f202397e56092a02e9da4973e0a7bd15bde60e8a9ed64b89556864736f6c63430008110033",
  "linkReferences": {},
  "deployedLinkReferences": {}
}